:100000000C9434000C9451000C9451000C94510049
:100010000C9451000C9451000C9451000C948F00DE
:100020000C9451000C9451000C9451000C9451000C
:100030000C9451000C9451000C9451000C945100FC
:100040000C9451000C9451000C9451000C945100EC
:100050000C9451000C9451000C9451000C945100DC
:100060000C9451000C94510011241FBECFEFD8E026
:10007000DEBFCDBF11E0A0E0B1E0E6E6F5E002C0F2
:1000800005900D92A630B107D9F721E0A6E0B1E0C6
:1000900001C01D92AA30B207E1F70E9479010C94C9
:1000A000B1020C940000813C2CE0920714F080EC2B
:1000B0009CE0BC01990F880B990B0E9425022FE64A
:1000C00032E143E05EE30E94820120E030E048EC50
:1000D00052E40E9482010E94F4016093B3000895EB
:1000E000F8941092B000E1EBF0E010821092B300AF
:1000F000808188608083808181608083808182604C
:100100008083808184608083E0E7F0E0808182608A
:10011000808384EF91E00E945300789408951F92A9
:100120000F920FB60F9211242F933F934F935F932B
:100130006F937F938F939F93AF93BF93EF93FF93AF
:10014000F894809100019091010101979093010131
:1001500080930001892B89F40E943101809308016A
:100160009093090190910401891B8093070184E613
:1001700090E090930101809300017894FF91EF91BA
:10018000BF91AF919F918F917F916F915F914F91AF
:100190003F912F910F900FBE0F901F9018951092C6
:1001A000B90086E08093B80084E08093BC00089595
:1001B00084EA8093BC008091BC0087FFFCCF089547
:1001C00084E98093BC0008958093BB0084E8809309
:1001D000BC008091BC0087FFFCCF089584EC809325
:1001E000BC008091BC0087FFFCCF8091BB000895CC
:1001F00084E88093BC008091BC0087FFFCCF809195
:10020000BB0008958091B900887F0895CF93C82FCF
:100210000E94D8009091B900987F983019F08FEF24
:100220009FEF1DC088E90E94E4009091B900987F7B
:100230009831A9F781E00E94E4009091B900987F7D
:10024000983269F78C2F0E94E4008091B900887F72
:10025000883229F784E98093BC0080E090E0CF9158
:100260000895CF930E94D8008091B900887F88308C
:1002700019F08FEF9FEF3BC088E90E94E400809166
:10028000B900887F8831A9F780E00E94E40080915E
:10029000B900887F883269F70E94D8008091B90040
:1002A000887F803131F789E90E94E4008091B900AC
:1002B000887F8034F1F60E94EE00C82F9091B9003B
:1002C000987F9035B1F60E94F8009091B900987F20
:1002D000983579F694E99093BC00982F991F992747
:1002E000991F892F90E08C0F911D880F991FCF9136
:1002F00008950E94CF0084EF91E00E9453000E9475
:100300007000FFCF0E9496010C9477020E94700249
:1003100058F00E94690240F029F45F3F29F00C94E4
:10032000600251110C94AB020C9466020E94880288
:1003300068F39923B1F3552391F3951B550BBB2714
:10034000AA2762177307840738F09F5F5F4F220F59
:10035000331F441FAA1FA9F335D00E2E3AF0E0E850
:1003600032D091505040E695001CCAF72BD0FE2F9A
:1003700029D0660F771F881FBB1F2617370748072E
:10038000AB07B0E809F0BB0B802DBF01FF279358E6
:100390005F4F3AF09E3F510578F00C9460020C9448
:1003A000AB025F3FE4F3983ED4F38695779567956B
:1003B000B795F7959F5FC9F7880F911D969587951B
:1003C00097F90895E1E0660F771F881FBB1F62173A
:1003D00073078407BA0720F0621B730B840BBA0BF8
:1003E000EE1F88F7E09508950E94900288F09F57CD
:1003F00098F0B92F9927B751B0F0E1F0660F771F49
:10040000881F991F1AF0BA95C9F714C0B13091F03E
:100410000E94AA02B1E008950C94AA02672F782FD7
:100420008827B85F39F0B93FCCF386957795679503
:10043000B395D9F73EF490958095709561957F4F6F
:100440008F4F9F4F0895E89409C097FB3EF4909515
:100450008095709561957F4F8F4F9F4F9923A9F09D
:10046000F92F96E9BB279395F6958795779567952C
:10047000B795F111F8CFFAF4BB0F11F460FF1BC070
:100480006F5F7F4F8F4F9F4F16C0882311F096E903
:1004900011C0772321F09EE8872F762F05C06623B1
:1004A00071F096E8862F70E060E02AF09A95660F6A
:1004B000771F881FDAF7880F9695879597F9089523
:1004C00097F99F6780E870E060E008959FEF80EC07
:1004D000089500240A9416161706180609060895AA
:1004E00000240A9412161306140605060895092E10
:1004F0000394000C11F4882352F0BB0F40F4BF2B7F
:1005000011F460FF04C06F5F7F4F8F4F9F4F0895BE
:1005100057FD9058440F551F59F05F3F71F04795B4
:10052000880F97FB991F61F09F3F79F08795089599
:10053000121613061406551FF2CF4695F1DF08C0B8
:10054000161617061806991FF1CF869571056105D5
:1005500008940895E894BB2766277727CB0197F97D
:060560000895F894FFCF9E
:06056600640001004A00E0
:00000001FF
