:100000000C9434000C9451000C9451000C94510049
:100010000C9451000C9451000C9451000C94F90074
:100020000C9451000C9451000C9451000C9451000C
:100030000C9451000C9451000C9451000C945100FC
:100040000C9451000C9451000C94EB010C94510051
:100050000C9451000C9451000C9451000C945100DC
:100060000C9451000C94510011241FBECFEFD8E026
:10007000DEBFCDBF11E0A0E0B1E0E0E7F5E002C0F7
:1000800005900D92A631B107D9F721E0A6E1B1E0C4
:1000900001C01D92A236B207E1F70E9460020C94E3
:1000A000B6020C94000080E00E9465000E94770078
:1000B000089581E00E9465000E947700089582E023
:1000C0000E9465000E9477000895EAE7F0E09081C1
:1000D00097609083ACE7B0E09C9190669C939C9174
:1000E000907F892B8C938081806880830895809194
:1000F0007A00806480937A0080917A0086FDFCCF3C
:100100008091790090E00895F8941092B000E1EBAE
:10011000F0E01082A3EBB0E01C92808188608083C5
:10012000808181608083808182608083808184601F
:100130008083E0E7F0E08081826080838FEF8C93A2
:1001400078940895F894569A14BC15BC82E087BD43
:10015000569A84B5806884BD84B5816084BD85B5B8
:10016000856085BD7894089514BC15BC0895F894F5
:10017000219A81E880938000E1E8F0E08DE08083BF
:1001800082E090E0909389008093880084B186603B
:1001900084B9808181608083789408951092800072
:1001A000109281000895DC01FC013A9640E050E095
:1001B0002D913D91420F531FAE17BF07C9F79C0108
:1001C0002C5E3F4F80E090E061917191860F971F08
:1001D000E217F307C9F7841B950B64E170E00E94F6
:1001E0006C02CB01089597FF03C091958195910909
:1001F00008951F920F920FB60F9211240F931F9321
:100200002F933F934F935F936F937F938F939F931E
:10021000AF93BF93CF93DF93EF93FF93F8948091C5
:1002200016019091170101966AE070E00E946C023D
:10023000EC0190931701809316010E945300CC0F9C
:10024000DD1FC45EDE4F90E099838883C091160164
:10025000D09117010E945900CC0FDD1FC85BDE4F03
:1002600090E099838883C0911601D09117010E9474
:100270005F00CC0FDD1FC05DDE4F90E09983888367
:100280008091160190911701892B91F58CE191E0F5
:100290000E94D300D82FC92F809344019093450129
:1002A00088E491E00E94D3008C0180934601109372
:1002B000470180E391E00E94D30080931A0190935C
:1002C0001B01A80117FF03C05195419551092D2F1E
:1002D0003C2F37FF03C0319521953109420F9C0116
:1002E00097FF03C0319521953109240F20931901FF
:1002F00080910001909101010197909301018093F9
:100300000001892B39F58091040190910501892B19
:1003100029F0109205011092040106C081E090E0DE
:100320009093050180930401809104019DE0899FD1
:10033000802D11248D5F87BD87B590E09093890053
:1003400080938800809102019091030190930101B4
:10035000809300017894FF91EF91DF91CF91BF914D
:10036000AF919F918F917F916F915F914F913F914D
:100370002F911F910F910F900FBE0F901F90189506
:100380008236B1F050F48136F1F40E94B4000E943C
:10039000CE0085B1837F88601CC0833669F08436C7
:1003A00091F485B18C6085B90E94A2000C94B700CD
:1003B00085B1837F886002C085B18C6085B90E9459
:1003C000A2000C94CE000E94B4000E94CE0085B121
:1003D000837F85B908951F920F920FB60F92112453
:1003E0002F933F934F935F936F937F938F939F933D
:1003F000AF93BF93EF93FF930E944C028093180139
:100400000E94C00180911901805D0E943702FF9116
:10041000EF91BF91AF919F918F917F916F915F917C
:100420004F913F912F910F900FBE0F901F901895F5
:100430009B01AC0184E0220F331F441F551F8A9596
:10044000D1F760E072E18AE790E00E9480022150DB
:1004500031093093C5002093C40080E28093C0002E
:1004600088E98093C10086E08093C200089590914E
:10047000C00095FFFCCF8093C6000895CF93C82F8E
:100480008A3019F48DE00E9437028C2F0E943702C7
:1004900080E090E0CF9108958091C00087FFFCCF6D
:1004A0008091C600089560E875E280E090E00E94C7
:1004B000180288E091E090935F0180935E010895B7
:1004C00084B18C6084B960E875E280E090E00E94BD
:1004D00018020E948400FFCF97FB072E16F40094A9
:1004E00007D077FD09D00E94A20207FC05D03EF498
:1004F000909581959F4F0895709561957F4F0895D0
:10050000A1E21A2EAA1BBB1BFD010DC0AA1FBB1F17
:10051000EE1FFF1FA217B307E407F50720F0A21B89
:10052000B30BE40BF50B661F771F881F991F1A94F6
:1005300069F760957095809590959B01AC01BD0120
:10054000CF010895AA1BBB1B51E107C0AA1FBB1F07
:10055000A617B70710F0A61BB70B881F991F5A954F
:10056000A9F780959095BC01CD010895F894FFCF2F
:100570000F000F0001004A00000000020000000010
:060580003E020000000035
:00000001FF
